{
  "_format": "hh-sol-artifact-1",
  "contractName": "ParticipationTicket",
  "sourceName": "contracts/ParticipationTicket.sol",
  "abi": [
    {
      "inputs": [
        {
          "internalType": "string",
          "name": "baseTokenURI_",
          "type": "string"
        }
      ],
      "stateMutability": "nonpayable",
      "type": "constructor"
    },
    {
      "inputs": [],
      "name": "ErrLocked",
      "type": "error"
    },
    {
      "inputs": [],
      "name": "ErrNotFound",
      "type": "error"
    },
    {
      "anonymous": false,
      "inputs": [
        {
          "indexed": true,
          "internalType": "address",
          "name": "owner",
          "type": "address"
        },
        {
          "indexed": true,
          "internalType": "address",
          "name": "approved",
          "type": "address"
        },
        {
          "indexed": true,
          "internalType": "uint256",
          "name": "tokenId",
          "type": "uint256"
        }
      ],
      "name": "Approval",
      "type": "event"
    },
    {
      "anonymous": false,
      "inputs": [
        {
          "indexed": true,
          "internalType": "address",
          "name": "owner",
          "type": "address"
        },
        {
          "indexed": true,
          "internalType": "address",
          "name": "operator",
          "type": "address"
        },
        {
          "indexed": false,
          "internalType": "bool",
          "name": "approved",
          "type": "bool"
        }
      ],
      "name": "ApprovalForAll",
      "type": "event"
    },
    {
      "anonymous": false,
      "inputs": [
        {
          "indexed": false,
          "internalType": "uint256",
          "name": "tokenId",
          "type": "uint256"
        }
      ],
      "name": "Locked",
      "type": "event"
    },
    {
      "anonymous": false,
      "inputs": [
        {
          "indexed": true,
          "internalType": "address",
          "name": "previousOwner",
          "type": "address"
        },
        {
          "indexed": true,
          "internalType": "address",
          "name": "newOwner",
          "type": "address"
        }
      ],
      "name": "OwnershipTransferred",
      "type": "event"
    },
    {
      "anonymous": false,
      "inputs": [
        {
          "indexed": true,
          "internalType": "address",
          "name": "from",
          "type": "address"
        },
        {
          "indexed": true,
          "internalType": "address",
          "name": "to",
          "type": "address"
        },
        {
          "indexed": true,
          "internalType": "uint256",
          "name": "tokenId",
          "type": "uint256"
        }
      ],
      "name": "Transfer",
      "type": "event"
    },
    {
      "anonymous": false,
      "inputs": [
        {
          "indexed": false,
          "internalType": "uint256",
          "name": "tokenId",
          "type": "uint256"
        }
      ],
      "name": "Unlocked",
      "type": "event"
    },
    {
      "inputs": [
        {
          "internalType": "address",
          "name": "approved",
          "type": "address"
        },
        {
          "internalType": "uint256",
          "name": "tokenId",
          "type": "uint256"
        }
      ],
      "name": "approve",
      "outputs": [],
      "stateMutability": "nonpayable",
      "type": "function"
    },
    {
      "inputs": [
        {
          "internalType": "address",
          "name": "owner",
          "type": "address"
        }
      ],
      "name": "balanceOf",
      "outputs": [
        {
          "internalType": "uint256",
          "name": "",
          "type": "uint256"
        }
      ],
      "stateMutability": "view",
      "type": "function"
    },
    {
      "inputs": [],
      "name": "baseTokenURI",
      "outputs": [
        {
          "internalType": "string",
          "name": "",
          "type": "string"
        }
      ],
      "stateMutability": "view",
      "type": "function"
    },
    {
      "inputs": [
        {
          "internalType": "uint256",
          "name": "tokenId",
          "type": "uint256"
        }
      ],
      "name": "getApproved",
      "outputs": [
        {
          "internalType": "address",
          "name": "",
          "type": "address"
        }
      ],
      "stateMutability": "view",
      "type": "function"
    },
    {
      "inputs": [],
      "name": "getCurrentTokenId",
      "outputs": [
        {
          "internalType": "uint256",
          "name": "",
          "type": "uint256"
        }
      ],
      "stateMutability": "view",
      "type": "function"
    },
    {
      "inputs": [
        {
          "internalType": "address",
          "name": "owner",
          "type": "address"
        },
        {
          "internalType": "address",
          "name": "operator",
          "type": "address"
        }
      ],
      "name": "isApprovedForAll",
      "outputs": [
        {
          "internalType": "bool",
          "name": "",
          "type": "bool"
        }
      ],
      "stateMutability": "view",
      "type": "function"
    },
    {
      "inputs": [
        {
          "internalType": "uint256",
          "name": "tokenId",
          "type": "uint256"
        }
      ],
      "name": "locked",
      "outputs": [
        {
          "internalType": "bool",
          "name": "",
          "type": "bool"
        }
      ],
      "stateMutability": "view",
      "type": "function"
    },
    {
      "inputs": [
        {
          "internalType": "address",
          "name": "receiver",
          "type": "address"
        }
      ],
      "name": "mintTicket",
      "outputs": [],
      "stateMutability": "nonpayable",
      "type": "function"
    },
    {
      "inputs": [
        {
          "internalType": "address",
          "name": "receiver",
          "type": "address"
        }
      ],
      "name": "mintTicketByOwner",
      "outputs": [],
      "stateMutability": "nonpayable",
      "type": "function"
    },
    {
      "inputs": [],
      "name": "name",
      "outputs": [
        {
          "internalType": "string",
          "name": "",
          "type": "string"
        }
      ],
      "stateMutability": "view",
      "type": "function"
    },
    {
      "inputs": [],
      "name": "owner",
      "outputs": [
        {
          "internalType": "address",
          "name": "",
          "type": "address"
        }
      ],
      "stateMutability": "view",
      "type": "function"
    },
    {
      "inputs": [
        {
          "internalType": "uint256",
          "name": "tokenId",
          "type": "uint256"
        }
      ],
      "name": "ownerOf",
      "outputs": [
        {
          "internalType": "address",
          "name": "",
          "type": "address"
        }
      ],
      "stateMutability": "view",
      "type": "function"
    },
    {
      "inputs": [],
      "name": "renounceOwnership",
      "outputs": [],
      "stateMutability": "nonpayable",
      "type": "function"
    },
    {
      "inputs": [
        {
          "internalType": "address",
          "name": "from",
          "type": "address"
        },
        {
          "internalType": "address",
          "name": "to",
          "type": "address"
        },
        {
          "internalType": "uint256",
          "name": "tokenId",
          "type": "uint256"
        }
      ],
      "name": "safeTransferFrom",
      "outputs": [],
      "stateMutability": "nonpayable",
      "type": "function"
    },
    {
      "inputs": [
        {
          "internalType": "address",
          "name": "from",
          "type": "address"
        },
        {
          "internalType": "address",
          "name": "to",
          "type": "address"
        },
        {
          "internalType": "uint256",
          "name": "tokenId",
          "type": "uint256"
        },
        {
          "internalType": "bytes",
          "name": "data",
          "type": "bytes"
        }
      ],
      "name": "safeTransferFrom",
      "outputs": [],
      "stateMutability": "nonpayable",
      "type": "function"
    },
    {
      "inputs": [
        {
          "internalType": "address",
          "name": "operator",
          "type": "address"
        },
        {
          "internalType": "bool",
          "name": "approved",
          "type": "bool"
        }
      ],
      "name": "setApprovalForAll",
      "outputs": [],
      "stateMutability": "nonpayable",
      "type": "function"
    },
    {
      "inputs": [
        {
          "internalType": "string",
          "name": "baseTokenURI_",
          "type": "string"
        }
      ],
      "name": "setBaseURI",
      "outputs": [],
      "stateMutability": "nonpayable",
      "type": "function"
    },
    {
      "inputs": [
        {
          "internalType": "bytes4",
          "name": "interfaceId",
          "type": "bytes4"
        }
      ],
      "name": "supportsInterface",
      "outputs": [
        {
          "internalType": "bool",
          "name": "",
          "type": "bool"
        }
      ],
      "stateMutability": "view",
      "type": "function"
    },
    {
      "inputs": [],
      "name": "symbol",
      "outputs": [
        {
          "internalType": "string",
          "name": "",
          "type": "string"
        }
      ],
      "stateMutability": "view",
      "type": "function"
    },
    {
      "inputs": [
        {
          "internalType": "uint256",
          "name": "tokenId",
          "type": "uint256"
        }
      ],
      "name": "tokenURI",
      "outputs": [
        {
          "internalType": "string",
          "name": "",
          "type": "string"
        }
      ],
      "stateMutability": "view",
      "type": "function"
    },
    {
      "inputs": [
        {
          "internalType": "address",
          "name": "from",
          "type": "address"
        },
        {
          "internalType": "address",
          "name": "to",
          "type": "address"
        },
        {
          "internalType": "uint256",
          "name": "tokenId",
          "type": "uint256"
        }
      ],
      "name": "transferFrom",
      "outputs": [],
      "stateMutability": "nonpayable",
      "type": "function"
    },
    {
      "inputs": [
        {
          "internalType": "address",
          "name": "newOwner",
          "type": "address"
        }
      ],
      "name": "transferOwnership",
      "outputs": [],
      "stateMutability": "nonpayable",
      "type": "function"
    }
  ],
  "bytecode": "0x60806040523480156200001157600080fd5b50604051620039623803806200396283398181016040528101906200003791906200046b565b6040518060400160405280601381526020017f50617274696369706174696f6e5469636b6574000000000000000000000000008152506040518060400160405280600381526020017f50544b0000000000000000000000000000000000000000000000000000000000815250600182828160009081620000b8919062000707565b508060019081620000ca919062000707565b50505080600660006101000a81548160ff0219169083151502179055505050506200010a620000fe6200012a60201b60201c565b6200013260201b60201c565b60016007819055506200012381620001f860201b60201c565b5062000871565b600033905090565b6000600660019054906101000a900473ffffffffffffffffffffffffffffffffffffffff16905081600660016101000a81548173ffffffffffffffffffffffffffffffffffffffff021916908373ffffffffffffffffffffffffffffffffffffffff1602179055508173ffffffffffffffffffffffffffffffffffffffff168173ffffffffffffffffffffffffffffffffffffffff167f8be0079c531659141344cd1fd0a4f28419497f9722a3daafe3b4186f6b6457e060405160405180910390a35050565b620002086200021d60201b60201c565b806009908162000219919062000707565b5050565b6200022d6200012a60201b60201c565b73ffffffffffffffffffffffffffffffffffffffff1662000253620002ae60201b60201c565b73ffffffffffffffffffffffffffffffffffffffff1614620002ac576040517f08c379a0000000000000000000000000000000000000000000000000000000008152600401620002a3906200084f565b60405180910390fd5b565b6000600660019054906101000a900473ffffffffffffffffffffffffffffffffffffffff16905090565b6000604051905090565b600080fd5b600080fd5b600080fd5b600080fd5b6000601f19601f8301169050919050565b7f4e487b7100000000000000000000000000000000000000000000000000000000600052604160045260246000fd5b6200034182620002f6565b810181811067ffffffffffffffff8211171562000363576200036262000307565b5b80604052505050565b600062000378620002d8565b905062000386828262000336565b919050565b600067ffffffffffffffff821115620003a957620003a862000307565b5b620003b482620002f6565b9050602081019050919050565b60005b83811015620003e1578082015181840152602081019050620003c4565b60008484015250505050565b600062000404620003fe846200038b565b6200036c565b905082815260208101848484011115620004235762000422620002f1565b5b62000430848285620003c1565b509392505050565b600082601f83011262000450576200044f620002ec565b5b815162000462848260208601620003ed565b91505092915050565b600060208284031215620004845762000483620002e2565b5b600082015167ffffffffffffffff811115620004a557620004a4620002e7565b5b620004b38482850162000438565b91505092915050565b600081519050919050565b7f4e487b7100000000000000000000000000000000000000000000000000000000600052602260045260246000fd5b600060028204905060018216806200050f57607f821691505b602082108103620005255762000524620004c7565b5b50919050565b60008190508160005260206000209050919050565b60006020601f8301049050919050565b600082821b905092915050565b6000600883026200058f7fffffffffffffffffffffffffffffffffffffffffffffffffffffffffffffffff8262000550565b6200059b868362000550565b95508019841693508086168417925050509392505050565b6000819050919050565b6000819050919050565b6000620005e8620005e2620005dc84620005b3565b620005bd565b620005b3565b9050919050565b6000819050919050565b6200060483620005c7565b6200061c6200061382620005ef565b8484546200055d565b825550505050565b600090565b6200063362000624565b62000640818484620005f9565b505050565b5b8181101562000668576200065c60008262000629565b60018101905062000646565b5050565b601f821115620006b75762000681816200052b565b6200068c8462000540565b810160208510156200069c578190505b620006b4620006ab8562000540565b83018262000645565b50505b505050565b600082821c905092915050565b6000620006dc60001984600802620006bc565b1980831691505092915050565b6000620006f78383620006c9565b9150826002028217905092915050565b6200071282620004bc565b67ffffffffffffffff8111156200072e576200072d62000307565b5b6200073a8254620004f6565b620007478282856200066c565b600060209050601f8311600181146200077f57600084156200076a578287015190505b620007768582620006e9565b865550620007e6565b601f1984166200078f866200052b565b60005b82811015620007b95784890151825560018201915060208501945060208101905062000792565b86831015620007d95784890151620007d5601f891682620006c9565b8355505b6001600288020188555050505b505050505050565b600082825260208201905092915050565b7f4f776e61626c653a2063616c6c6572206973206e6f7420746865206f776e6572600082015250565b600062000837602083620007ee565b91506200084482620007ff565b602082019050919050565b600060208201905081810360008301526200086a8162000828565b9050919050565b6130e180620008816000396000f3fe608060405234801561001057600080fd5b50600436106101425760003560e01c806370a08231116100b8578063b45a3c0e1161007c578063b45a3c0e1461034d578063b88d4fde1461037d578063c87b56dd14610399578063d547cfb7146103c9578063e985e9c5146103e7578063f2fde38b1461041757610142565b806370a08231146102bb578063715018a6146102eb5780638da5cb5b146102f557806395d89b4114610313578063a22cb4651461033157610142565b80631e847e661161010a5780631e847e66146101fd57806323b872dd1461021957806342842e0e1461023557806355f804b314610251578063561892361461026d5780636352211e1461028b57610142565b806301ffc9a71461014757806306fdde0314610177578063081812fc1461019557806308e9bd26146101c5578063095ea7b3146101e1575b600080fd5b610161600480360381019061015c9190611e76565b610433565b60405161016e9190611ebe565b60405180910390f35b61017f610445565b60405161018c9190611f69565b60405180910390f35b6101af60048036038101906101aa9190611fc1565b6104d7565b6040516101bc919061202f565b60405180910390f35b6101df60048036038101906101da9190612076565b61051d565b005b6101fb60048036038101906101f691906120a3565b6105d5565b005b61021760048036038101906102129190612076565b61062a565b005b610233600480360381019061022e91906120e3565b6106da565b005b61024f600480360381019061024a91906120e3565b610731565b005b61026b6004803603810190610266919061226b565b610788565b005b6102756107a3565b60405161028291906122c3565b60405180910390f35b6102a560048036038101906102a09190611fc1565b6107b4565b6040516102b2919061202f565b60405180910390f35b6102d560048036038101906102d09190612076565b61083a565b6040516102e291906122c3565b60405180910390f35b6102f36108f1565b005b6102fd610905565b60405161030a919061202f565b60405180910390f35b61031b61092f565b6040516103289190611f69565b60405180910390f35b61034b6004803603810190610346919061230a565b6109c1565b005b61036760048036038101906103629190611fc1565b610a16565b6040516103749190611ebe565b60405180910390f35b610397600480360381019061039291906123eb565b610a6e565b005b6103b360048036038101906103ae9190611fc1565b610ac7565b6040516103c09190611f69565b60405180910390f35b6103d1610ba3565b6040516103de9190611f69565b60405180910390f35b61040160048036038101906103fc919061246e565b610c31565b60405161040e9190611ebe565b60405180910390f35b610431600480360381019061042c9190612076565b610cc5565b005b600061043e82610d48565b9050919050565b606060008054610454906124dd565b80601f0160208091040260200160405190810160405280929190818152602001828054610480906124dd565b80156104cd5780601f106104a2576101008083540402835291602001916104cd565b820191906000526020600020905b8154815290600101906020018083116104b057829003601f168201915b5050505050905090565b60006104e282610dc2565b6004600083815260200190815260200160002060009054906101000a900473ffffffffffffffffffffffffffffffffffffffff169050919050565b610525610e0d565b60016105308261083a565b10610570576040517f08c379a000000000000000000000000000000000000000000000000000000000815260040161056790612580565b60405180910390fd5b61057a6008610e5c565b60006105866008610e72565b90506105928282610e80565b7f032bc66be43dbccb7487781d168eb7bda224628a3b2c3388bdf69b532a3a1611816040516105c191906122c3565b60405180910390a1506105d2610e9e565b50565b600660009054906101000a900460ff161561061c576040517fbd291a9500000000000000000000000000000000000000000000000000000000815260040160405180910390fd5b6106268282610ea8565b5050565b610632610fbf565b600161063d8261083a565b1061067d576040517f08c379a000000000000000000000000000000000000000000000000000000000815260040161067490612580565b60405180910390fd5b6106876008610e5c565b60006106936008610e72565b905061069f8282610e80565b7f032bc66be43dbccb7487781d168eb7bda224628a3b2c3388bdf69b532a3a1611816040516106ce91906122c3565b60405180910390a15050565b600660009054906101000a900460ff1615610721576040517fbd291a9500000000000000000000000000000000000000000000000000000000815260040160405180910390fd5b61072c83838361103d565b505050565b600660009054906101000a900460ff1615610778576040517fbd291a9500000000000000000000000000000000000000000000000000000000815260040160405180910390fd5b61078383838361109d565b505050565b610790610fbf565b806009908161079f919061274c565b5050565b60006107af6008610e72565b905090565b6000806107c0836110bd565b9050600073ffffffffffffffffffffffffffffffffffffffff168173ffffffffffffffffffffffffffffffffffffffff1603610831576040517f08c379a00000000000000000000000000000000000000000000000000000000081526004016108289061286a565b60405180910390fd5b80915050919050565b60008073ffffffffffffffffffffffffffffffffffffffff168273ffffffffffffffffffffffffffffffffffffffff16036108aa576040517f08c379a00000000000000000000000000000000000000000000000000000000081526004016108a1906128fc565b60405180910390fd5b600360008373ffffffffffffffffffffffffffffffffffffffff1673ffffffffffffffffffffffffffffffffffffffff168152602001908152602001600020549050919050565b6108f9610fbf565b61090360006110fa565b565b6000600660019054906101000a900473ffffffffffffffffffffffffffffffffffffffff16905090565b60606001805461093e906124dd565b80601f016020809104026020016040519081016040528092919081815260200182805461096a906124dd565b80156109b75780601f1061098c576101008083540402835291602001916109b7565b820191906000526020600020905b81548152906001019060200180831161099a57829003601f168201915b5050505050905090565b600660009054906101000a900460ff1615610a08576040517fbd291a9500000000000000000000000000000000000000000000000000000000815260040160405180910390fd5b610a1282826111c0565b5050565b6000610a21826111d6565b610a57576040517fae9a63f500000000000000000000000000000000000000000000000000000000815260040160405180910390fd5b600660009054906101000a900460ff169050919050565b600660009054906101000a900460ff1615610ab5576040517fbd291a9500000000000000000000000000000000000000000000000000000000815260040160405180910390fd5b610ac184848484611217565b50505050565b6060610ad2826111d6565b610b11576040517f08c379a0000000000000000000000000000000000000000000000000000000008152600401610b089061298e565b60405180910390fd5b60098054610b1e906124dd565b80601f0160208091040260200160405190810160405280929190818152602001828054610b4a906124dd565b8015610b975780601f10610b6c57610100808354040283529160200191610b97565b820191906000526020600020905b815481529060010190602001808311610b7a57829003601f168201915b50505050509050919050565b60098054610bb0906124dd565b80601f0160208091040260200160405190810160405280929190818152602001828054610bdc906124dd565b8015610c295780601f10610bfe57610100808354040283529160200191610c29565b820191906000526020600020905b815481529060010190602001808311610c0c57829003601f168201915b505050505081565b6000600560008473ffffffffffffffffffffffffffffffffffffffff1673ffffffffffffffffffffffffffffffffffffffff16815260200190815260200160002060008373ffffffffffffffffffffffffffffffffffffffff1673ffffffffffffffffffffffffffffffffffffffff16815260200190815260200160002060009054906101000a900460ff16905092915050565b610ccd610fbf565b600073ffffffffffffffffffffffffffffffffffffffff168173ffffffffffffffffffffffffffffffffffffffff1603610d3c576040517f08c379a0000000000000000000000000000000000000000000000000000000008152600401610d3390612a20565b60405180910390fd5b610d45816110fa565b50565b60007fb45a3c0e000000000000000000000000000000000000000000000000000000007bffffffffffffffffffffffffffffffffffffffffffffffffffffffff1916827bffffffffffffffffffffffffffffffffffffffffffffffffffffffff19161480610dbb5750610dba82611279565b5b9050919050565b610dcb816111d6565b610e0a576040517f08c379a0000000000000000000000000000000000000000000000000000000008152600401610e019061286a565b60405180910390fd5b50565b600260075403610e52576040517f08c379a0000000000000000000000000000000000000000000000000000000008152600401610e4990612a8c565b60405180910390fd5b6002600781905550565b6001816000016000828254019250508190555050565b600081600001549050919050565b610e9a82826040518060200160405280600081525061135b565b5050565b6001600781905550565b6000610eb3826107b4565b90508073ffffffffffffffffffffffffffffffffffffffff168373ffffffffffffffffffffffffffffffffffffffff1603610f23576040517f08c379a0000000000000000000000000000000000000000000000000000000008152600401610f1a90612b1e565b60405180910390fd5b8073ffffffffffffffffffffffffffffffffffffffff16610f426113b6565b73ffffffffffffffffffffffffffffffffffffffff161480610f715750610f7081610f6b6113b6565b610c31565b5b610fb0576040517f08c379a0000000000000000000000000000000000000000000000000000000008152600401610fa790612bb0565b60405180910390fd5b610fba83836113be565b505050565b610fc76113b6565b73ffffffffffffffffffffffffffffffffffffffff16610fe5610905565b73ffffffffffffffffffffffffffffffffffffffff161461103b576040517f08c379a000000000000000000000000000000000000000000000000000000000815260040161103290612c1c565b60405180910390fd5b565b61104e6110486113b6565b82611477565b61108d576040517f08c379a000000000000000000000000000000000000000000000000000000000815260040161108490612cae565b60405180910390fd5b61109883838361150c565b505050565b6110b883838360405180602001604052806000815250610a6e565b505050565b60006002600083815260200190815260200160002060009054906101000a900473ffffffffffffffffffffffffffffffffffffffff169050919050565b6000600660019054906101000a900473ffffffffffffffffffffffffffffffffffffffff16905081600660016101000a81548173ffffffffffffffffffffffffffffffffffffffff021916908373ffffffffffffffffffffffffffffffffffffffff1602179055508173ffffffffffffffffffffffffffffffffffffffff168173ffffffffffffffffffffffffffffffffffffffff167f8be0079c531659141344cd1fd0a4f28419497f9722a3daafe3b4186f6b6457e060405160405180910390a35050565b6111d26111cb6113b6565b8383611805565b5050565b60008073ffffffffffffffffffffffffffffffffffffffff166111f8836110bd565b73ffffffffffffffffffffffffffffffffffffffff1614159050919050565b6112286112226113b6565b83611477565b611267576040517f08c379a000000000000000000000000000000000000000000000000000000000815260040161125e90612cae565b60405180910390fd5b61127384848484611971565b50505050565b60007f80ac58cd000000000000000000000000000000000000000000000000000000007bffffffffffffffffffffffffffffffffffffffffffffffffffffffff1916827bffffffffffffffffffffffffffffffffffffffffffffffffffffffff1916148061134457507f5b5e139f000000000000000000000000000000000000000000000000000000007bffffffffffffffffffffffffffffffffffffffffffffffffffffffff1916827bffffffffffffffffffffffffffffffffffffffffffffffffffffffff1916145b806113545750611353826119cd565b5b9050919050565b6113658383611a37565b6113726000848484611c54565b6113b1576040517f08c379a00000000000000000000000000000000000000000000000000000000081526004016113a890612d40565b60405180910390fd5b505050565b600033905090565b816004600083815260200190815260200160002060006101000a81548173ffffffffffffffffffffffffffffffffffffffff021916908373ffffffffffffffffffffffffffffffffffffffff160217905550808273ffffffffffffffffffffffffffffffffffffffff16611431836107b4565b73ffffffffffffffffffffffffffffffffffffffff167f8c5be1e5ebec7d5bd14f71427d1e84f3dd0314c0f7b2291e5b200ac8c7c3b92560405160405180910390a45050565b600080611483836107b4565b90508073ffffffffffffffffffffffffffffffffffffffff168473ffffffffffffffffffffffffffffffffffffffff1614806114c557506114c48185610c31565b5b8061150357508373ffffffffffffffffffffffffffffffffffffffff166114eb846104d7565b73ffffffffffffffffffffffffffffffffffffffff16145b91505092915050565b8273ffffffffffffffffffffffffffffffffffffffff1661152c826107b4565b73ffffffffffffffffffffffffffffffffffffffff1614611582576040517f08c379a000000000000000000000000000000000000000000000000000000000815260040161157990612dd2565b60405180910390fd5b600073ffffffffffffffffffffffffffffffffffffffff168273ffffffffffffffffffffffffffffffffffffffff16036115f1576040517f08c379a00000000000000000000000000000000000000000000000000000000081526004016115e890612e64565b60405180910390fd5b6115fe8383836001611ddb565b8273ffffffffffffffffffffffffffffffffffffffff1661161e826107b4565b73ffffffffffffffffffffffffffffffffffffffff1614611674576040517f08c379a000000000000000000000000000000000000000000000000000000000815260040161166b90612dd2565b60405180910390fd5b6004600082815260200190815260200160002060006101000a81549073ffffffffffffffffffffffffffffffffffffffff02191690556001600360008573ffffffffffffffffffffffffffffffffffffffff1673ffffffffffffffffffffffffffffffffffffffff168152602001908152602001600020600082825403925050819055506001600360008473ffffffffffffffffffffffffffffffffffffffff1673ffffffffffffffffffffffffffffffffffffffff16815260200190815260200160002060008282540192505081905550816002600083815260200190815260200160002060006101000a81548173ffffffffffffffffffffffffffffffffffffffff021916908373ffffffffffffffffffffffffffffffffffffffff160217905550808273ffffffffffffffffffffffffffffffffffffffff168473ffffffffffffffffffffffffffffffffffffffff167fddf252ad1be2c89b69c2b068fc378daa952ba7f163c4a11628f55a4df523b3ef60405160405180910390a46118008383836001611de1565b505050565b8173ffffffffffffffffffffffffffffffffffffffff168373ffffffffffffffffffffffffffffffffffffffff1603611873576040517f08c379a000000000000000000000000000000000000000000000000000000000815260040161186a90612ed0565b60405180910390fd5b80600560008573ffffffffffffffffffffffffffffffffffffffff1673ffffffffffffffffffffffffffffffffffffffff16815260200190815260200160002060008473ffffffffffffffffffffffffffffffffffffffff1673ffffffffffffffffffffffffffffffffffffffff16815260200190815260200160002060006101000a81548160ff0219169083151502179055508173ffffffffffffffffffffffffffffffffffffffff168373ffffffffffffffffffffffffffffffffffffffff167f17307eab39ab6107e8899845ad3d59bd9653f200f220920489ca2b5937696c31836040516119649190611ebe565b60405180910390a3505050565b61197c84848461150c565b61198884848484611c54565b6119c7576040517f08c379a00000000000000000000000000000000000000000000000000000000081526004016119be90612d40565b60405180910390fd5b50505050565b60007f01ffc9a7000000000000000000000000000000000000000000000000000000007bffffffffffffffffffffffffffffffffffffffffffffffffffffffff1916827bffffffffffffffffffffffffffffffffffffffffffffffffffffffff1916149050919050565b600073ffffffffffffffffffffffffffffffffffffffff168273ffffffffffffffffffffffffffffffffffffffff1603611aa6576040517f08c379a0000000000000000000000000000000000000000000000000000000008152600401611a9d90612f3c565b60405180910390fd5b611aaf816111d6565b15611aef576040517f08c379a0000000000000000000000000000000000000000000000000000000008152600401611ae690612fa8565b60405180910390fd5b611afd600083836001611ddb565b611b06816111d6565b15611b46576040517f08c379a0000000000000000000000000000000000000000000000000000000008152600401611b3d90612fa8565b60405180910390fd5b6001600360008473ffffffffffffffffffffffffffffffffffffffff1673ffffffffffffffffffffffffffffffffffffffff16815260200190815260200160002060008282540192505081905550816002600083815260200190815260200160002060006101000a81548173ffffffffffffffffffffffffffffffffffffffff021916908373ffffffffffffffffffffffffffffffffffffffff160217905550808273ffffffffffffffffffffffffffffffffffffffff16600073ffffffffffffffffffffffffffffffffffffffff167fddf252ad1be2c89b69c2b068fc378daa952ba7f163c4a11628f55a4df523b3ef60405160405180910390a4611c50600083836001611de1565b5050565b6000611c758473ffffffffffffffffffffffffffffffffffffffff16611de7565b15611dce578373ffffffffffffffffffffffffffffffffffffffff1663150b7a02611c9e6113b6565b8786866040518563ffffffff1660e01b8152600401611cc0949392919061301d565b6020604051808303816000875af1925050508015611cfc57506040513d601f19601f82011682018060405250810190611cf9919061307e565b60015b611d7e573d8060008114611d2c576040519150601f19603f3d011682016040523d82523d6000602084013e611d31565b606091505b506000815103611d76576040517f08c379a0000000000000000000000000000000000000000000000000000000008152600401611d6d90612d40565b60405180910390fd5b805181602001fd5b63150b7a0260e01b7bffffffffffffffffffffffffffffffffffffffffffffffffffffffff1916817bffffffffffffffffffffffffffffffffffffffffffffffffffffffff191614915050611dd3565b600190505b949350505050565b50505050565b50505050565b6000808273ffffffffffffffffffffffffffffffffffffffff163b119050919050565b6000604051905090565b600080fd5b600080fd5b60007fffffffff0000000000000000000000000000000000000000000000000000000082169050919050565b611e5381611e1e565b8114611e5e57600080fd5b50565b600081359050611e7081611e4a565b92915050565b600060208284031215611e8c57611e8b611e14565b5b6000611e9a84828501611e61565b91505092915050565b60008115159050919050565b611eb881611ea3565b82525050565b6000602082019050611ed36000830184611eaf565b92915050565b600081519050919050565b600082825260208201905092915050565b60005b83811015611f13578082015181840152602081019050611ef8565b60008484015250505050565b6000601f19601f8301169050919050565b6000611f3b82611ed9565b611f458185611ee4565b9350611f55818560208601611ef5565b611f5e81611f1f565b840191505092915050565b60006020820190508181036000830152611f838184611f30565b905092915050565b6000819050919050565b611f9e81611f8b565b8114611fa957600080fd5b50565b600081359050611fbb81611f95565b92915050565b600060208284031215611fd757611fd6611e14565b5b6000611fe584828501611fac565b91505092915050565b600073ffffffffffffffffffffffffffffffffffffffff82169050919050565b600061201982611fee565b9050919050565b6120298161200e565b82525050565b60006020820190506120446000830184612020565b92915050565b6120538161200e565b811461205e57600080fd5b50565b6000813590506120708161204a565b92915050565b60006020828403121561208c5761208b611e14565b5b600061209a84828501612061565b91505092915050565b600080604083850312156120ba576120b9611e14565b5b60006120c885828601612061565b92505060206120d985828601611fac565b9150509250929050565b6000806000606084860312156120fc576120fb611e14565b5b600061210a86828701612061565b935050602061211b86828701612061565b925050604061212c86828701611fac565b9150509250925092565b600080fd5b600080fd5b7f4e487b7100000000000000000000000000000000000000000000000000000000600052604160045260246000fd5b61217882611f1f565b810181811067ffffffffffffffff8211171561219757612196612140565b5b80604052505050565b60006121aa611e0a565b90506121b6828261216f565b919050565b600067ffffffffffffffff8211156121d6576121d5612140565b5b6121df82611f1f565b9050602081019050919050565b82818337600083830152505050565b600061220e612209846121bb565b6121a0565b90508281526020810184848401111561222a5761222961213b565b5b6122358482856121ec565b509392505050565b600082601f83011261225257612251612136565b5b81356122628482602086016121fb565b91505092915050565b60006020828403121561228157612280611e14565b5b600082013567ffffffffffffffff81111561229f5761229e611e19565b5b6122ab8482850161223d565b91505092915050565b6122bd81611f8b565b82525050565b60006020820190506122d860008301846122b4565b92915050565b6122e781611ea3565b81146122f257600080fd5b50565b600081359050612304816122de565b92915050565b6000806040838503121561232157612320611e14565b5b600061232f85828601612061565b9250506020612340858286016122f5565b9150509250929050565b600067ffffffffffffffff82111561236557612364612140565b5b61236e82611f1f565b9050602081019050919050565b600061238e6123898461234a565b6121a0565b9050828152602081018484840111156123aa576123a961213b565b5b6123b58482856121ec565b509392505050565b600082601f8301126123d2576123d1612136565b5b81356123e284826020860161237b565b91505092915050565b6000806000806080858703121561240557612404611e14565b5b600061241387828801612061565b945050602061242487828801612061565b935050604061243587828801611fac565b925050606085013567ffffffffffffffff81111561245657612455611e19565b5b612462878288016123bd565b91505092959194509250565b6000806040838503121561248557612484611e14565b5b600061249385828601612061565b92505060206124a485828601612061565b9150509250929050565b7f4e487b7100000000000000000000000000000000000000000000000000000000600052602260045260246000fd5b600060028204905060018216806124f557607f821691505b602082108103612508576125076124ae565b5b50919050565b7f69737375616e6365206c696d697420657863656564656420706572206164647260008201527f6573730000000000000000000000000000000000000000000000000000000000602082015250565b600061256a602383611ee4565b91506125758261250e565b604082019050919050565b600060208201905081810360008301526125998161255d565b9050919050565b60008190508160005260206000209050919050565b60006020601f8301049050919050565b600082821b905092915050565b6000600883026126027fffffffffffffffffffffffffffffffffffffffffffffffffffffffffffffffff826125c5565b61260c86836125c5565b95508019841693508086168417925050509392505050565b6000819050919050565b600061264961264461263f84611f8b565b612624565b611f8b565b9050919050565b6000819050919050565b6126638361262e565b61267761266f82612650565b8484546125d2565b825550505050565b600090565b61268c61267f565b61269781848461265a565b505050565b5b818110156126bb576126b0600082612684565b60018101905061269d565b5050565b601f821115612700576126d1816125a0565b6126da846125b5565b810160208510156126e9578190505b6126fd6126f5856125b5565b83018261269c565b50505b505050565b600082821c905092915050565b600061272360001984600802612705565b1980831691505092915050565b600061273c8383612712565b9150826002028217905092915050565b61275582611ed9565b67ffffffffffffffff81111561276e5761276d612140565b5b61277882546124dd565b6127838282856126bf565b600060209050601f8311600181146127b657600084156127a4578287015190505b6127ae8582612730565b865550612816565b601f1984166127c4866125a0565b60005b828110156127ec578489015182556001820191506020850194506020810190506127c7565b868310156128095784890151612805601f891682612712565b8355505b6001600288020188555050505b505050505050565b7f4552433732313a20696e76616c696420746f6b656e2049440000000000000000600082015250565b6000612854601883611ee4565b915061285f8261281e565b602082019050919050565b6000602082019050818103600083015261288381612847565b9050919050565b7f4552433732313a2061646472657373207a65726f206973206e6f74206120766160008201527f6c6964206f776e65720000000000000000000000000000000000000000000000602082015250565b60006128e6602983611ee4565b91506128f18261288a565b604082019050919050565b60006020820190508181036000830152612915816128d9565b9050919050565b7f4552433732314d657461646174613a2055524920717565727920666f72206e6f60008201527f6e6578697374656e7420746f6b656e0000000000000000000000000000000000602082015250565b6000612978602f83611ee4565b91506129838261291c565b604082019050919050565b600060208201905081810360008301526129a78161296b565b9050919050565b7f4f776e61626c653a206e6577206f776e657220697320746865207a65726f206160008201527f6464726573730000000000000000000000000000000000000000000000000000602082015250565b6000612a0a602683611ee4565b9150612a15826129ae565b604082019050919050565b60006020820190508181036000830152612a39816129fd565b9050919050565b7f5265656e7472616e637947756172643a207265656e7472616e742063616c6c00600082015250565b6000612a76601f83611ee4565b9150612a8182612a40565b602082019050919050565b60006020820190508181036000830152612aa581612a69565b9050919050565b7f4552433732313a20617070726f76616c20746f2063757272656e74206f776e6560008201527f7200000000000000000000000000000000000000000000000000000000000000602082015250565b6000612b08602183611ee4565b9150612b1382612aac565b604082019050919050565b60006020820190508181036000830152612b3781612afb565b9050919050565b7f4552433732313a20617070726f76652063616c6c6572206973206e6f7420746f60008201527f6b656e206f776e6572206f7220617070726f76656420666f7220616c6c000000602082015250565b6000612b9a603d83611ee4565b9150612ba582612b3e565b604082019050919050565b60006020820190508181036000830152612bc981612b8d565b9050919050565b7f4f776e61626c653a2063616c6c6572206973206e6f7420746865206f776e6572600082015250565b6000612c06602083611ee4565b9150612c1182612bd0565b602082019050919050565b60006020820190508181036000830152612c3581612bf9565b9050919050565b7f4552433732313a2063616c6c6572206973206e6f7420746f6b656e206f776e6560008201527f72206f7220617070726f76656400000000000000000000000000000000000000602082015250565b6000612c98602d83611ee4565b9150612ca382612c3c565b604082019050919050565b60006020820190508181036000830152612cc781612c8b565b9050919050565b7f4552433732313a207472616e7366657220746f206e6f6e20455243373231526560008201527f63656976657220696d706c656d656e7465720000000000000000000000000000602082015250565b6000612d2a603283611ee4565b9150612d3582612cce565b604082019050919050565b60006020820190508181036000830152612d5981612d1d565b9050919050565b7f4552433732313a207472616e736665722066726f6d20696e636f72726563742060008201527f6f776e6572000000000000000000000000000000000000000000000000000000602082015250565b6000612dbc602583611ee4565b9150612dc782612d60565b604082019050919050565b60006020820190508181036000830152612deb81612daf565b9050919050565b7f4552433732313a207472616e7366657220746f20746865207a65726f2061646460008201527f7265737300000000000000000000000000000000000000000000000000000000602082015250565b6000612e4e602483611ee4565b9150612e5982612df2565b604082019050919050565b60006020820190508181036000830152612e7d81612e41565b9050919050565b7f4552433732313a20617070726f766520746f2063616c6c657200000000000000600082015250565b6000612eba601983611ee4565b9150612ec582612e84565b602082019050919050565b60006020820190508181036000830152612ee981612ead565b9050919050565b7f4552433732313a206d696e7420746f20746865207a65726f2061646472657373600082015250565b6000612f26602083611ee4565b9150612f3182612ef0565b602082019050919050565b60006020820190508181036000830152612f5581612f19565b9050919050565b7f4552433732313a20746f6b656e20616c7265616479206d696e74656400000000600082015250565b6000612f92601c83611ee4565b9150612f9d82612f5c565b602082019050919050565b60006020820190508181036000830152612fc181612f85565b9050919050565b600081519050919050565b600082825260208201905092915050565b6000612fef82612fc8565b612ff98185612fd3565b9350613009818560208601611ef5565b61301281611f1f565b840191505092915050565b60006080820190506130326000830187612020565b61303f6020830186612020565b61304c60408301856122b4565b818103606083015261305e8184612fe4565b905095945050505050565b60008151905061307881611e4a565b92915050565b60006020828403121561309457613093611e14565b5b60006130a284828501613069565b9150509291505056fea2646970667358221220e77a57dbe343ac82c074b185595cc71733bc442d726cd8dbb781666bb78a466264736f6c63430008120033",
  "linkReferences": {},
  "deployedLinkReferences": {}
}